{
  "_format": "hh-sol-artifact-1",
  "contractName": "DutchAuction",
  "sourceName": "contracts/DutchAuction.sol",
  "abi": [
    {
      "inputs": [
        {
          "internalType": "address",
          "name": "_nft",
          "type": "address"
        },
        {
          "internalType": "uint256",
          "name": "_tokenId",
          "type": "uint256"
        },
        {
          "internalType": "uint256",
          "name": "_startingPrice",
          "type": "uint256"
        },
        {
          "internalType": "uint256",
          "name": "_reservePrice",
          "type": "uint256"
        },
        {
          "internalType": "uint256",
          "name": "_priceDropInterval",
          "type": "uint256"
        },
        {
          "internalType": "uint256",
          "name": "_priceDropAmount",
          "type": "uint256"
        },
        {
          "internalType": "uint256",
          "name": "_auctionDuration",
          "type": "uint256"
        },
        {
          "internalType": "address",
          "name": "_artist",
          "type": "address"
        }
      ],
      "stateMutability": "nonpayable",
      "type": "constructor"
    },
    {
      "anonymous": false,
      "inputs": [
        {
          "indexed": true,
          "internalType": "address",
          "name": "seller",
          "type": "address"
        },
        {
          "indexed": true,
          "internalType": "uint256",
          "name": "tokenId",
          "type": "uint256"
        },
        {
          "indexed": false,
          "internalType": "uint256",
          "name": "startingPrice",
          "type": "uint256"
        },
        {
          "indexed": false,
          "internalType": "uint256",
          "name": "reservePrice",
          "type": "uint256"
        },
        {
          "indexed": false,
          "internalType": "uint256",
          "name": "priceDropInterval",
          "type": "uint256"
        },
        {
          "indexed": false,
          "internalType": "uint256",
          "name": "priceDropAmount",
          "type": "uint256"
        },
        {
          "indexed": false,
          "internalType": "uint256",
          "name": "auctionDuration",
          "type": "uint256"
        }
      ],
      "name": "AuctionCreated",
      "type": "event"
    },
    {
      "anonymous": false,
      "inputs": [
        {
          "indexed": true,
          "internalType": "address",
          "name": "buyer",
          "type": "address"
        },
        {
          "indexed": false,
          "internalType": "uint256",
          "name": "finalPrice",
          "type": "uint256"
        }
      ],
      "name": "AuctionEnded",
      "type": "event"
    },
    {
      "anonymous": false,
      "inputs": [
        {
          "indexed": false,
          "internalType": "string",
          "name": "message",
          "type": "string"
        },
        {
          "indexed": false,
          "internalType": "uint256",
          "name": "value",
          "type": "uint256"
        }
      ],
      "name": "DebugLog",
      "type": "event"
    },
    {
      "inputs": [],
      "name": "artist",
      "outputs": [
        {
          "internalType": "address",
          "name": "",
          "type": "address"
        }
      ],
      "stateMutability": "view",
      "type": "function"
    },
    {
      "inputs": [],
      "name": "auctionDuration",
      "outputs": [
        {
          "internalType": "uint256",
          "name": "",
          "type": "uint256"
        }
      ],
      "stateMutability": "view",
      "type": "function"
    },
    {
      "inputs": [],
      "name": "auctionEnded",
      "outputs": [
        {
          "internalType": "bool",
          "name": "",
          "type": "bool"
        }
      ],
      "stateMutability": "view",
      "type": "function"
    },
    {
      "inputs": [],
      "name": "auctionStartTime",
      "outputs": [
        {
          "internalType": "uint256",
          "name": "",
          "type": "uint256"
        }
      ],
      "stateMutability": "view",
      "type": "function"
    },
    {
      "inputs": [],
      "name": "buy",
      "outputs": [],
      "stateMutability": "payable",
      "type": "function"
    },
    {
      "inputs": [],
      "name": "cancelAuction",
      "outputs": [],
      "stateMutability": "nonpayable",
      "type": "function"
    },
    {
      "inputs": [],
      "name": "getCurrentPrice",
      "outputs": [
        {
          "internalType": "uint256",
          "name": "",
          "type": "uint256"
        }
      ],
      "stateMutability": "view",
      "type": "function"
    },
    {
      "inputs": [],
      "name": "nft",
      "outputs": [
        {
          "internalType": "contract IERC721",
          "name": "",
          "type": "address"
        }
      ],
      "stateMutability": "view",
      "type": "function"
    },
    {
      "inputs": [],
      "name": "priceDropAmount",
      "outputs": [
        {
          "internalType": "uint256",
          "name": "",
          "type": "uint256"
        }
      ],
      "stateMutability": "view",
      "type": "function"
    },
    {
      "inputs": [],
      "name": "priceDropInterval",
      "outputs": [
        {
          "internalType": "uint256",
          "name": "",
          "type": "uint256"
        }
      ],
      "stateMutability": "view",
      "type": "function"
    },
    {
      "inputs": [],
      "name": "reservePrice",
      "outputs": [
        {
          "internalType": "uint256",
          "name": "",
          "type": "uint256"
        }
      ],
      "stateMutability": "view",
      "type": "function"
    },
    {
      "inputs": [],
      "name": "seller",
      "outputs": [
        {
          "internalType": "address",
          "name": "",
          "type": "address"
        }
      ],
      "stateMutability": "view",
      "type": "function"
    },
    {
      "inputs": [],
      "name": "startingPrice",
      "outputs": [
        {
          "internalType": "uint256",
          "name": "",
          "type": "uint256"
        }
      ],
      "stateMutability": "view",
      "type": "function"
    },
    {
      "inputs": [],
      "name": "tokenId",
      "outputs": [
        {
          "internalType": "uint256",
          "name": "",
          "type": "uint256"
        }
      ],
      "stateMutability": "view",
      "type": "function"
    }
  ],
  "bytecode": "0x60806040523480156200001157600080fd5b506040516200207738038062002077833981810160405281019062000037919062000211565b600160008190555087600160006101000a81548173ffffffffffffffffffffffffffffffffffffffff021916908373ffffffffffffffffffffffffffffffffffffffff16021790555033600260006101000a81548173ffffffffffffffffffffffffffffffffffffffff021916908373ffffffffffffffffffffffffffffffffffffffff16021790555086600481905550856005819055508460068190555083600781905550826008819055508160098190555042600a8190555080600360006101000a81548173ffffffffffffffffffffffffffffffffffffffff021916908373ffffffffffffffffffffffffffffffffffffffff1602179055506000600b60006101000a81548160ff021916908315150217905550600454600260009054906101000a900473ffffffffffffffffffffffffffffffffffffffff1673ffffffffffffffffffffffffffffffffffffffff167fa9c9ce74c6780fa6081c9d53409599ddf68d9de67baf56c341a2efe9d9c494cd600554600654600754600854600954604051620001cd959493929190620002e5565b60405180910390a35050505050505050620003b4565b600081519050620001f48162000380565b92915050565b6000815190506200020b816200039a565b92915050565b600080600080600080600080610100898b0312156200022f57600080fd5b60006200023f8b828c01620001e3565b9850506020620002528b828c01620001fa565b9750506040620002658b828c01620001fa565b9650506060620002788b828c01620001fa565b95505060806200028b8b828c01620001fa565b94505060a06200029e8b828c01620001fa565b93505060c0620002b18b828c01620001fa565b92505060e0620002c48b828c01620001e3565b9150509295985092959890939650565b620002df8162000376565b82525050565b600060a082019050620002fc6000830188620002d4565b6200030b6020830187620002d4565b6200031a6040830186620002d4565b620003296060830185620002d4565b620003386080830184620002d4565b9695505050505050565b60006200034f8262000356565b9050919050565b600073ffffffffffffffffffffffffffffffffffffffff82169050919050565b6000819050919050565b6200038b8162000342565b81146200039757600080fd5b50565b620003a58162000376565b8114620003b157600080fd5b50565b611cb380620003c46000396000f3fe6080604052600436106100dd5760003560e01c80638fa8b7901161007f578063d6fbf20211610059578063d6fbf2021461025b578063db2e1eed14610286578063eb54f9ec146102b1578063eb91d37e146102dc576100dd565b80638fa8b7901461020f578063a6f2ae3a14610226578063b4576cd114610230576100dd565b80631b4d21c8116100bb5780631b4d21c81461016357806343bc16121461018e57806347ccca02146101b957806386433374146101e4576100dd565b806308551a53146100e25780630cbf54c81461010d57806317d70f7c14610138575b600080fd5b3480156100ee57600080fd5b506100f7610307565b60405161010491906112cd565b60405180910390f35b34801561011957600080fd5b5061012261032d565b60405161012f91906116d0565b60405180910390f35b34801561014457600080fd5b5061014d610333565b60405161015a91906116d0565b60405180910390f35b34801561016f57600080fd5b50610178610339565b60405161018591906116d0565b60405180910390f35b34801561019a57600080fd5b506101a361033f565b6040516101b091906112cd565b60405180910390f35b3480156101c557600080fd5b506101ce610365565b6040516101db919061133a565b60405180910390f35b3480156101f057600080fd5b506101f961038b565b604051610206919061131f565b60405180910390f35b34801561021b57600080fd5b5061022461039e565b005b61022e6105c2565b005b34801561023c57600080fd5b50610245610e74565b60405161025291906116d0565b60405180910390f35b34801561026757600080fd5b50610270610e7a565b60405161027d91906116d0565b60405180910390f35b34801561029257600080fd5b5061029b610e80565b6040516102a891906116d0565b60405180910390f35b3480156102bd57600080fd5b506102c6610e86565b6040516102d391906116d0565b60405180910390f35b3480156102e857600080fd5b506102f1610e8c565b6040516102fe91906116d0565b60405180910390f35b600260009054906101000a900473ffffffffffffffffffffffffffffffffffffffff1681565b60095481565b60045481565b60075481565b600360009054906101000a900473ffffffffffffffffffffffffffffffffffffffff1681565b600160009054906101000a900473ffffffffffffffffffffffffffffffffffffffff1681565b600b60009054906101000a900460ff1681565b600260009054906101000a900473ffffffffffffffffffffffffffffffffffffffff1673ffffffffffffffffffffffffffffffffffffffff163373ffffffffffffffffffffffffffffffffffffffff161461042e576040517f08c379a000000000000000000000000000000000000000000000000000000000815260040161042590611634565b60405180910390fd5b600b60009054906101000a900460ff161561047e576040517f08c379a000000000000000000000000000000000000000000000000000000000815260040161047590611428565b60405180910390fd5b6001600b60006101000a81548160ff021916908315150217905550600160009054906101000a900473ffffffffffffffffffffffffffffffffffffffff1673ffffffffffffffffffffffffffffffffffffffff166323b872dd600260009054906101000a900473ffffffffffffffffffffffffffffffffffffffff16600260009054906101000a900473ffffffffffffffffffffffffffffffffffffffff166004546040518463ffffffff1660e01b815260040161053e939291906112e8565b600060405180830381600087803b15801561055857600080fd5b505af115801561056c573d6000803e3d6000fd5b50505050600073ffffffffffffffffffffffffffffffffffffffff167fdaec4582d5d9595688c8c98545fdd1c696d41c6aeaeb636737e84ed2f5c00eda60006040516105b89190611355565b60405180910390a2565b6105ca610f1f565b7ff6ff2ad7fc16bda2a7d32462729431bce3ebe9b75cc7c9b35a0adfbf7e7bb9e66004546040516105fb9190611370565b60405180910390a1600b60009054906101000a900460ff1615610653576040517f08c379a000000000000000000000000000000000000000000000000000000000815260040161064a90611428565b60405180910390fd5b600061065d610e8c565b9050803410156106a2576040517f08c379a00000000000000000000000000000000000000000000000000000000081526004016106999061152e565b60405180910390fd5b7ff6ff2ad7fc16bda2a7d32462729431bce3ebe9b75cc7c9b35a0adfbf7e7bb9e6816040516106d19190611674565b60405180910390a17ff6ff2ad7fc16bda2a7d32462729431bce3ebe9b75cc7c9b35a0adfbf7e7bb9e63460405161070891906115aa565b60405180910390a17ff6ff2ad7fc16bda2a7d32462729431bce3ebe9b75cc7c9b35a0adfbf7e7bb9e6600b60009054906101000a900460ff1661074c57600061074f565b60015b60405161075c919061157c565b60405180910390a17ff6ff2ad7fc16bda2a7d32462729431bce3ebe9b75cc7c9b35a0adfbf7e7bb9e6600a546040516107959190611500565b60405180910390a17ff6ff2ad7fc16bda2a7d32462729431bce3ebe9b75cc7c9b35a0adfbf7e7bb9e6426040516107cc91906113fa565b60405180910390a17ff6ff2ad7fc16bda2a7d32462729431bce3ebe9b75cc7c9b35a0adfbf7e7bb9e660095460405161080591906114d2565b60405180910390a17ff6ff2ad7fc16bda2a7d32462729431bce3ebe9b75cc7c9b35a0adfbf7e7bb9e660065460405161083e9190611606565b60405180910390a17ff6ff2ad7fc16bda2a7d32462729431bce3ebe9b75cc7c9b35a0adfbf7e7bb9e6600554604051610877919061139e565b60405180910390a17ff6ff2ad7fc16bda2a7d32462729431bce3ebe9b75cc7c9b35a0adfbf7e7bb9e66007546040516108b091906113cc565b60405180910390a17ff6ff2ad7fc16bda2a7d32462729431bce3ebe9b75cc7c9b35a0adfbf7e7bb9e66008546040516108e991906115d8565b60405180910390a16001600b60006101000a81548160ff0219169083151502179055507ff6ff2ad7fc16bda2a7d32462729431bce3ebe9b75cc7c9b35a0adfbf7e7bb9e660045460405161093d9190611370565b60405180910390a17ff6ff2ad7fc16bda2a7d32462729431bce3ebe9b75cc7c9b35a0adfbf7e7bb9e6600260009054906101000a900473ffffffffffffffffffffffffffffffffffffffff1673ffffffffffffffffffffffffffffffffffffffff166040516109ac919061154e565b60405180910390a17ff6ff2ad7fc16bda2a7d32462729431bce3ebe9b75cc7c9b35a0adfbf7e7bb9e63373ffffffffffffffffffffffffffffffffffffffff166040516109f991906116a2565b60405180910390a17ff6ff2ad7fc16bda2a7d32462729431bce3ebe9b75cc7c9b35a0adfbf7e7bb9e6600160009054906101000a900473ffffffffffffffffffffffffffffffffffffffff1673ffffffffffffffffffffffffffffffffffffffff16636352211e6004546040518263ffffffff1660e01b8152600401610a7f91906116d0565b60206040518083038186803b158015610a9757600080fd5b505afa158015610aab573d6000803e3d6000fd5b505050506040513d601f19601f82011682018060405250810190610acf9190610f8e565b73ffffffffffffffffffffffffffffffffffffffff16604051610af29190611476565b60405180910390a17ff6ff2ad7fc16bda2a7d32462729431bce3ebe9b75cc7c9b35a0adfbf7e7bb9e6600160009054906101000a900473ffffffffffffffffffffffffffffffffffffffff1673ffffffffffffffffffffffffffffffffffffffff1663081812fc6004546040518263ffffffff1660e01b8152600401610b7891906116d0565b60206040518083038186803b158015610b9057600080fd5b505afa158015610ba4573d6000803e3d6000fd5b505050506040513d601f19601f82011682018060405250810190610bc89190610f8e565b73ffffffffffffffffffffffffffffffffffffffff16604051610beb91906114a4565b60405180910390a1600160009054906101000a900473ffffffffffffffffffffffffffffffffffffffff1673ffffffffffffffffffffffffffffffffffffffff166323b872dd600260009054906101000a900473ffffffffffffffffffffffffffffffffffffffff16336004546040518463ffffffff1660e01b8152600401610c76939291906112e8565b600060405180830381600087803b158015610c9057600080fd5b505af1158015610ca4573d6000803e3d6000fd5b505050507ff6ff2ad7fc16bda2a7d32462729431bce3ebe9b75cc7c9b35a0adfbf7e7bb9e6600454604051610cd99190611448565b60405180910390a17ff6ff2ad7fc16bda2a7d32462729431bce3ebe9b75cc7c9b35a0adfbf7e7bb9e6600454604051610d129190611448565b60405180910390a160006064600a34610d2b9190611783565b610d359190611752565b905060008134610d4591906117dd565b9050600360009054906101000a900473ffffffffffffffffffffffffffffffffffffffff1673ffffffffffffffffffffffffffffffffffffffff166108fc839081150290604051600060405180830381858888f19350505050158015610daf573d6000803e3d6000fd5b50600260009054906101000a900473ffffffffffffffffffffffffffffffffffffffff1673ffffffffffffffffffffffffffffffffffffffff166108fc829081150290604051600060405180830381858888f19350505050158015610e18573d6000803e3d6000fd5b503373ffffffffffffffffffffffffffffffffffffffff167fdaec4582d5d9595688c8c98545fdd1c696d41c6aeaeb636737e84ed2f5c00eda84604051610e5f91906116d0565b60405180910390a2505050610e72610f6f565b565b60085481565b60055481565b60065481565b600a5481565b6000600954600a54610e9e91906116fc565b4210610eae576006549050610f1c565b6000600754600a5442610ec191906117dd565b610ecb9190611752565b9050600060085482610edd9190611783565b905060008160055411610ef257600654610f01565b81600554610f0091906117dd565b5b90506006548111610f1457600654610f16565b805b93505050505b90565b60026000541415610f65576040517f08c379a0000000000000000000000000000000000000000000000000000000008152600401610f5c90611654565b60405180910390fd5b6002600081905550565b6001600081905550565b600081519050610f8881611c66565b92915050565b600060208284031215610fa057600080fd5b6000610fae84828501610f79565b91505092915050565b610fc081611811565b82525050565b610fcf81611823565b82525050565b610fde81611866565b82525050565b610fed8161188a565b82525050565b60006110006010836116eb565b915061100b8261190c565b602082019050919050565b6000611023600e836116eb565b915061102e82611935565b602082019050919050565b60006110466013836116eb565b91506110518261195e565b602082019050919050565b6000611069600f836116eb565b915061107482611987565b602082019050919050565b600061108c6015836116eb565b9150611097826119b0565b602082019050919050565b60006110af600f836116eb565b91506110ba826119d9565b602082019050919050565b60006110d26009836116eb565b91506110dd82611a02565b602082019050919050565b60006110f5600c836116eb565b915061110082611a2b565b602082019050919050565b60006111186010836116eb565b915061112382611a54565b602082019050919050565b600061113b6012836116eb565b915061114682611a7d565b602082019050919050565b600061115e6019836116eb565b915061116982611aa6565b602082019050919050565b60006111816006836116eb565b915061118c82611acf565b602082019050919050565b60006111a4600d836116eb565b91506111af82611af8565b602082019050919050565b60006111c7600a836116eb565b91506111d282611b21565b602082019050919050565b60006111ea6011836116eb565b91506111f582611b4a565b602082019050919050565b600061120d600d836116eb565b915061121882611b73565b602082019050919050565b60006112306026836116eb565b915061123b82611b9c565b604082019050919050565b6000611253601f836116eb565b915061125e82611beb565b602082019050919050565b6000611276600d836116eb565b915061128182611c14565b602082019050919050565b60006112996005836116eb565b91506112a482611c3d565b602082019050919050565b6112b88161184f565b82525050565b6112c78161189c565b82525050565b60006020820190506112e26000830184610fb7565b92915050565b60006060820190506112fd6000830186610fb7565b61130a6020830185610fb7565b61131760408301846112af565b949350505050565b60006020820190506113346000830184610fc6565b92915050565b600060208201905061134f6000830184610fd5565b92915050565b600060208201905061136a6000830184610fe4565b92915050565b6000604082019050818103600083015261138981610ff3565b905061139860208301846112af565b92915050565b600060408201905081810360008301526113b781611016565b90506113c660208301846112af565b92915050565b600060408201905081810360008301526113e581611039565b90506113f460208301846112af565b92915050565b600060408201905081810360008301526114138161105c565b905061142260208301846112af565b92915050565b600060208201905081810360008301526114418161107f565b9050919050565b60006040820190508181036000830152611461816110a2565b905061147060208301846112af565b92915050565b6000604082019050818103600083015261148f816110c5565b905061149e60208301846112af565b92915050565b600060408201905081810360008301526114bd816110e8565b90506114cc60208301846112af565b92915050565b600060408201905081810360008301526114eb8161110b565b90506114fa60208301846112af565b92915050565b600060408201905081810360008301526115198161112e565b905061152860208301846112af565b92915050565b6000602082019050818103600083015261154781611151565b9050919050565b6000604082019050818103600083015261156781611174565b905061157660208301846112af565b92915050565b6000604082019050818103600083015261159581611197565b90506115a460208301846112be565b92915050565b600060408201905081810360008301526115c3816111ba565b90506115d260208301846112af565b92915050565b600060408201905081810360008301526115f1816111dd565b905061160060208301846112af565b92915050565b6000604082019050818103600083015261161f81611200565b905061162e60208301846112af565b92915050565b6000602082019050818103600083015261164d81611223565b9050919050565b6000602082019050818103600083015261166d81611246565b9050919050565b6000604082019050818103600083015261168d81611269565b905061169c60208301846112af565b92915050565b600060408201905081810360008301526116bb8161128c565b90506116ca60208301846112af565b92915050565b60006020820190506116e560008301846112af565b92915050565b600082825260208201905092915050565b60006117078261184f565b91506117128361184f565b9250827fffffffffffffffffffffffffffffffffffffffffffffffffffffffffffffffff03821115611747576117466118ae565b5b828201905092915050565b600061175d8261184f565b91506117688361184f565b925082611778576117776118dd565b5b828204905092915050565b600061178e8261184f565b91506117998361184f565b9250817fffffffffffffffffffffffffffffffffffffffffffffffffffffffffffffffff04831182151516156117d2576117d16118ae565b5b828202905092915050565b60006117e88261184f565b91506117f38361184f565b925082821015611806576118056118ae565b5b828203905092915050565b600061181c8261182f565b9050919050565b60008115159050919050565b600073ffffffffffffffffffffffffffffffffffffffff82169050919050565b6000819050919050565b600060ff82169050919050565b600061187182611878565b9050919050565b60006118838261182f565b9050919050565b60006118958261184f565b9050919050565b60006118a782611859565b9050919050565b7f4e487b7100000000000000000000000000000000000000000000000000000000600052601160045260246000fd5b7f4e487b7100000000000000000000000000000000000000000000000000000000600052601260045260246000fd5b7f5472616e7366657272696e67204e465400000000000000000000000000000000600082015250565b7f5374617274696e67205072696365000000000000000000000000000000000000600082015250565b7f50726963652044726f7020496e74657276616c00000000000000000000000000600082015250565b7f426c6f636b2054696d657374616d700000000000000000000000000000000000600082015250565b7f41756374696f6e20616c726561647920656e6465640000000000000000000000600082015250565b7f4e4654205472616e736665727265640000000000000000000000000000000000600082015250565b7f4e4654204f776e65720000000000000000000000000000000000000000000000600082015250565b7f4e465420417070726f7665640000000000000000000000000000000000000000600082015250565b7f41756374696f6e204475726174696f6e00000000000000000000000000000000600082015250565b7f41756374696f6e2053746172742054696d650000000000000000000000000000600082015250565b7f496e73756666696369656e742066756e647320746f2062757900000000000000600082015250565b7f53656c6c65720000000000000000000000000000000000000000000000000000600082015250565b7f41756374696f6e20456e64656400000000000000000000000000000000000000600082015250565b7f53656e742056616c756500000000000000000000000000000000000000000000600082015250565b7f50726963652044726f7020416d6f756e74000000000000000000000000000000600082015250565b7f5265736572766520507269636500000000000000000000000000000000000000600082015250565b7f4f6e6c79207468652073656c6c65722063616e2063616e63656c20746865206160008201527f756374696f6e0000000000000000000000000000000000000000000000000000602082015250565b7f5265656e7472616e637947756172643a207265656e7472616e742063616c6c00600082015250565b7f43757272656e7420507269636500000000000000000000000000000000000000600082015250565b7f4275796572000000000000000000000000000000000000000000000000000000600082015250565b611c6f81611811565b8114611c7a57600080fd5b5056fea26469706673582212201f26525055b3842a0a0536bbc81195788fa576ac2f76138eb57ddea4dfab211864736f6c63430008010033",
  "linkReferences": {},
  "deployedLinkReferences": {}
}