{
  "_format": "hh-sol-artifact-1",
  "contractName": "DutchAuction",
  "sourceName": "contracts/DutchAuction.sol",
  "abi": [
    {
      "inputs": [
        {
          "internalType": "address",
          "name": "_nft",
          "type": "address"
        },
        {
          "internalType": "uint256",
          "name": "_tokenId",
          "type": "uint256"
        },
        {
          "internalType": "uint256",
          "name": "_startingPrice",
          "type": "uint256"
        },
        {
          "internalType": "uint256",
          "name": "_reservePrice",
          "type": "uint256"
        },
        {
          "internalType": "uint256",
          "name": "_priceDropInterval",
          "type": "uint256"
        },
        {
          "internalType": "uint256",
          "name": "_priceDropAmount",
          "type": "uint256"
        },
        {
          "internalType": "uint256",
          "name": "_auctionDuration",
          "type": "uint256"
        },
        {
          "internalType": "address",
          "name": "_artist",
          "type": "address"
        }
      ],
      "stateMutability": "nonpayable",
      "type": "constructor"
    },
    {
      "anonymous": false,
      "inputs": [
        {
          "indexed": true,
          "internalType": "address",
          "name": "seller",
          "type": "address"
        },
        {
          "indexed": true,
          "internalType": "uint256",
          "name": "tokenId",
          "type": "uint256"
        },
        {
          "indexed": false,
          "internalType": "uint256",
          "name": "startingPrice",
          "type": "uint256"
        },
        {
          "indexed": false,
          "internalType": "uint256",
          "name": "reservePrice",
          "type": "uint256"
        },
        {
          "indexed": false,
          "internalType": "uint256",
          "name": "priceDropInterval",
          "type": "uint256"
        },
        {
          "indexed": false,
          "internalType": "uint256",
          "name": "priceDropAmount",
          "type": "uint256"
        },
        {
          "indexed": false,
          "internalType": "uint256",
          "name": "auctionDuration",
          "type": "uint256"
        }
      ],
      "name": "AuctionCreated",
      "type": "event"
    },
    {
      "anonymous": false,
      "inputs": [
        {
          "indexed": true,
          "internalType": "address",
          "name": "buyer",
          "type": "address"
        },
        {
          "indexed": false,
          "internalType": "uint256",
          "name": "finalPrice",
          "type": "uint256"
        }
      ],
      "name": "AuctionEnded",
      "type": "event"
    },
    {
      "inputs": [],
      "name": "artist",
      "outputs": [
        {
          "internalType": "address",
          "name": "",
          "type": "address"
        }
      ],
      "stateMutability": "view",
      "type": "function"
    },
    {
      "inputs": [],
      "name": "auctionDuration",
      "outputs": [
        {
          "internalType": "uint256",
          "name": "",
          "type": "uint256"
        }
      ],
      "stateMutability": "view",
      "type": "function"
    },
    {
      "inputs": [],
      "name": "auctionEnded",
      "outputs": [
        {
          "internalType": "bool",
          "name": "",
          "type": "bool"
        }
      ],
      "stateMutability": "view",
      "type": "function"
    },
    {
      "inputs": [],
      "name": "auctionStartTime",
      "outputs": [
        {
          "internalType": "uint256",
          "name": "",
          "type": "uint256"
        }
      ],
      "stateMutability": "view",
      "type": "function"
    },
    {
      "inputs": [],
      "name": "buy",
      "outputs": [],
      "stateMutability": "payable",
      "type": "function"
    },
    {
      "inputs": [],
      "name": "getCurrentPrice",
      "outputs": [
        {
          "internalType": "uint256",
          "name": "",
          "type": "uint256"
        }
      ],
      "stateMutability": "view",
      "type": "function"
    },
    {
      "inputs": [],
      "name": "nft",
      "outputs": [
        {
          "internalType": "contract IERC721",
          "name": "",
          "type": "address"
        }
      ],
      "stateMutability": "view",
      "type": "function"
    },
    {
      "inputs": [],
      "name": "priceDropAmount",
      "outputs": [
        {
          "internalType": "uint256",
          "name": "",
          "type": "uint256"
        }
      ],
      "stateMutability": "view",
      "type": "function"
    },
    {
      "inputs": [],
      "name": "priceDropInterval",
      "outputs": [
        {
          "internalType": "uint256",
          "name": "",
          "type": "uint256"
        }
      ],
      "stateMutability": "view",
      "type": "function"
    },
    {
      "inputs": [],
      "name": "reservePrice",
      "outputs": [
        {
          "internalType": "uint256",
          "name": "",
          "type": "uint256"
        }
      ],
      "stateMutability": "view",
      "type": "function"
    },
    {
      "inputs": [],
      "name": "seller",
      "outputs": [
        {
          "internalType": "address",
          "name": "",
          "type": "address"
        }
      ],
      "stateMutability": "view",
      "type": "function"
    },
    {
      "inputs": [],
      "name": "startingPrice",
      "outputs": [
        {
          "internalType": "uint256",
          "name": "",
          "type": "uint256"
        }
      ],
      "stateMutability": "view",
      "type": "function"
    },
    {
      "inputs": [],
      "name": "tokenId",
      "outputs": [
        {
          "internalType": "uint256",
          "name": "",
          "type": "uint256"
        }
      ],
      "stateMutability": "view",
      "type": "function"
    }
  ],
  "bytecode": "0x60806040523480156200001157600080fd5b5060405162000f2b38038062000f2b833981810160405281019062000037919062000211565b600160008190555087600160006101000a81548173ffffffffffffffffffffffffffffffffffffffff021916908373ffffffffffffffffffffffffffffffffffffffff16021790555033600260006101000a81548173ffffffffffffffffffffffffffffffffffffffff021916908373ffffffffffffffffffffffffffffffffffffffff16021790555086600481905550856005819055508460068190555083600781905550826008819055508160098190555042600a8190555080600360006101000a81548173ffffffffffffffffffffffffffffffffffffffff021916908373ffffffffffffffffffffffffffffffffffffffff1602179055506000600b60006101000a81548160ff021916908315150217905550600454600260009054906101000a900473ffffffffffffffffffffffffffffffffffffffff1673ffffffffffffffffffffffffffffffffffffffff167fa9c9ce74c6780fa6081c9d53409599ddf68d9de67baf56c341a2efe9d9c494cd600554600654600754600854600954604051620001cd959493929190620002e5565b60405180910390a35050505050505050620003b4565b600081519050620001f48162000380565b92915050565b6000815190506200020b816200039a565b92915050565b600080600080600080600080610100898b0312156200022f57600080fd5b60006200023f8b828c01620001e3565b9850506020620002528b828c01620001fa565b9750506040620002658b828c01620001fa565b9650506060620002788b828c01620001fa565b95505060806200028b8b828c01620001fa565b94505060a06200029e8b828c01620001fa565b93505060c0620002b18b828c01620001fa565b92505060e0620002c48b828c01620001e3565b9150509295985092959890939650565b620002df8162000376565b82525050565b600060a082019050620002fc6000830188620002d4565b6200030b6020830187620002d4565b6200031a6040830186620002d4565b620003296060830185620002d4565b620003386080830184620002d4565b9695505050505050565b60006200034f8262000356565b9050919050565b600073ffffffffffffffffffffffffffffffffffffffff82169050919050565b6000819050919050565b6200038b8162000342565b81146200039757600080fd5b50565b620003a58162000376565b8114620003b157600080fd5b50565b610b6780620003c46000396000f3fe6080604052600436106100c25760003560e01c8063864333741161007f578063d6fbf20211610059578063d6fbf20214610229578063db2e1eed14610254578063eb54f9ec1461027f578063eb91d37e146102aa576100c2565b806386433374146101c9578063a6f2ae3a146101f4578063b4576cd1146101fe576100c2565b806308551a53146100c75780630cbf54c8146100f257806317d70f7c1461011d5780631b4d21c81461014857806343bc16121461017357806347ccca021461019e575b600080fd5b3480156100d357600080fd5b506100dc6102d5565b6040516100e9919061083e565b60405180910390f35b3480156100fe57600080fd5b506101076102fb565b6040516101149190610926565b60405180910390f35b34801561012957600080fd5b50610132610301565b60405161013f9190610926565b60405180910390f35b34801561015457600080fd5b5061015d610307565b60405161016a9190610926565b60405180910390f35b34801561017f57600080fd5b5061018861030d565b604051610195919061083e565b60405180910390f35b3480156101aa57600080fd5b506101b3610333565b6040516101c091906108ab565b60405180910390f35b3480156101d557600080fd5b506101de610359565b6040516101eb9190610890565b60405180910390f35b6101fc61036c565b005b34801561020a57600080fd5b5061021361063d565b6040516102209190610926565b60405180910390f35b34801561023557600080fd5b5061023e610643565b60405161024b9190610926565b60405180910390f35b34801561026057600080fd5b50610269610649565b6040516102769190610926565b60405180910390f35b34801561028b57600080fd5b5061029461064f565b6040516102a19190610926565b60405180910390f35b3480156102b657600080fd5b506102bf610655565b6040516102cc9190610926565b60405180910390f35b600260009054906101000a900473ffffffffffffffffffffffffffffffffffffffff1681565b60095481565b60045481565b60075481565b600360009054906101000a900473ffffffffffffffffffffffffffffffffffffffff1681565b600160009054906101000a900473ffffffffffffffffffffffffffffffffffffffff1681565b600b60009054906101000a900460ff1681565b6103746106e8565b600b60009054906101000a900460ff16156103c4576040517f08c379a00000000000000000000000000000000000000000000000000000000081526004016103bb906108c6565b60405180910390fd5b60006103ce610655565b905080341015610413576040517f08c379a000000000000000000000000000000000000000000000000000000000815260040161040a906108e6565b60405180910390fd5b6001600b60006101000a81548160ff021916908315150217905550600160009054906101000a900473ffffffffffffffffffffffffffffffffffffffff1673ffffffffffffffffffffffffffffffffffffffff166323b872dd600260009054906101000a900473ffffffffffffffffffffffffffffffffffffffff16336004546040518463ffffffff1660e01b81526004016104b193929190610859565b600060405180830381600087803b1580156104cb57600080fd5b505af11580156104df573d6000803e3d6000fd5b5050505060006064600a346104f491906109d9565b6104fe91906109a8565b90506000813461050e9190610a33565b9050600360009054906101000a900473ffffffffffffffffffffffffffffffffffffffff1673ffffffffffffffffffffffffffffffffffffffff166108fc839081150290604051600060405180830381858888f19350505050158015610578573d6000803e3d6000fd5b50600260009054906101000a900473ffffffffffffffffffffffffffffffffffffffff1673ffffffffffffffffffffffffffffffffffffffff166108fc829081150290604051600060405180830381858888f193505050501580156105e1573d6000803e3d6000fd5b503373ffffffffffffffffffffffffffffffffffffffff167fdaec4582d5d9595688c8c98545fdd1c696d41c6aeaeb636737e84ed2f5c00eda846040516106289190610926565b60405180910390a250505061063b610738565b565b60085481565b60055481565b60065481565b600a5481565b6000600954600a546106679190610952565b42106106775760065490506106e5565b6000600754600a544261068a9190610a33565b61069491906109a8565b90506000600854826106a691906109d9565b9050600081600554116106bb576006546106ca565b816005546106c99190610a33565b5b905060065481116106dd576006546106df565b805b93505050505b90565b6002600054141561072e576040517f08c379a000000000000000000000000000000000000000000000000000000000815260040161072590610906565b60405180910390fd5b6002600081905550565b6001600081905550565b61074b81610a67565b82525050565b61075a81610a79565b82525050565b61076981610aaf565b82525050565b600061077c601583610941565b91507f41756374696f6e20616c726561647920656e64656400000000000000000000006000830152602082019050919050565b60006107bc601983610941565b91507f496e73756666696369656e742066756e647320746f20627579000000000000006000830152602082019050919050565b60006107fc601f83610941565b91507f5265656e7472616e637947756172643a207265656e7472616e742063616c6c006000830152602082019050919050565b61083881610aa5565b82525050565b60006020820190506108536000830184610742565b92915050565b600060608201905061086e6000830186610742565b61087b6020830185610742565b610888604083018461082f565b949350505050565b60006020820190506108a56000830184610751565b92915050565b60006020820190506108c06000830184610760565b92915050565b600060208201905081810360008301526108df8161076f565b9050919050565b600060208201905081810360008301526108ff816107af565b9050919050565b6000602082019050818103600083015261091f816107ef565b9050919050565b600060208201905061093b600083018461082f565b92915050565b600082825260208201905092915050565b600061095d82610aa5565b915061096883610aa5565b9250827fffffffffffffffffffffffffffffffffffffffffffffffffffffffffffffffff0382111561099d5761099c610ad3565b5b828201905092915050565b60006109b382610aa5565b91506109be83610aa5565b9250826109ce576109cd610b02565b5b828204905092915050565b60006109e482610aa5565b91506109ef83610aa5565b9250817fffffffffffffffffffffffffffffffffffffffffffffffffffffffffffffffff0483118215151615610a2857610a27610ad3565b5b828202905092915050565b6000610a3e82610aa5565b9150610a4983610aa5565b925082821015610a5c57610a5b610ad3565b5b828203905092915050565b6000610a7282610a85565b9050919050565b60008115159050919050565b600073ffffffffffffffffffffffffffffffffffffffff82169050919050565b6000819050919050565b6000610aba82610ac1565b9050919050565b6000610acc82610a85565b9050919050565b7f4e487b7100000000000000000000000000000000000000000000000000000000600052601160045260246000fd5b7f4e487b7100000000000000000000000000000000000000000000000000000000600052601260045260246000fdfea264697066735822122065994e10c7473c3d1c1f61d9a532f7e21f20f69fbe64e0646ec46ac3c4aeaa9f64736f6c63430008000033",
  "linkReferences": {},
  "deployedLinkReferences": {}
}